S00C00006770696F2E7372656369
S11300000C9434000C943E000C943E000C943E007E
S11300100C943E000C943E000C943E000C943E0064
S11300200C943E000C943E000C943E000C943E0054
S11300300C943E000C943E000C943E000C943E0044
S11300400C943E000C943E000C943E000C943E0034
S11300500C943E000C943E000C943E000C943E0024
S11300600C943E000C943E0011241FBECFEFD8E048
S1130070DEBFCDBF0E9481000C9466010C94000089
S1130080FC01408121E030E002C0220F331F6A9559
S1130090E2F7242B20830895FC01808121E030E0E5
S11300A002C0220F331F6A95E2F7922F909589239D
S11300B0808380818181282B21830895FC01908194
S11300C021E030E002C0220F331F6A95E2F7209549
S11300D0292320830895FC01408121E030E002C0FF
S11300E0220F331F6A95E2F7242720830895FC0129
S11300F0808190E002C0959587956A95E2F78170BA
S1130100089561E084E290E00E94400061E085E2AD
S113011090E00E945E0063E084E290E00E94400070
S113012063E085E290E00E945E0065E084E290E096
S11301300E94400065E085E290E00E945E0062E07B
S113014084E290E00E94400062E085E290E00E9438
S11301505E0064E084E290E00E94400064E085E296
S113016090E00E945E0060E08AE290E00E944C0011
S11301702FEF80E792E0215080409040E1F700C0EB
S1130180000060E089E290E00E9477008111F0CFE6
S113019061E085E290E00E946B002FEF80E792E03F
S11301A0215080409040E1F700C0000061E085E20A
S11301B090E00E946B0062E085E290E00E946B0098
S11301C02FEF80E792E0215080409040E1F700C09B
S11301D0000062E085E290E00E946B0063E085E24B
S11301E090E00E946B002FEF80E792E02150804066
S11301F09040E1F700C0000063E085E290E00E94D7
S11302006B0064E085E290E00E946B002FEF80E7D2
S113021092E0215080409040E1F700C0000064E08B
S113022085E290E00E946B0065E085E290E00E9428
S11302306B002FEF80E792E0215080409040E1F77F
S113024000C0000065E085E290E00E946B0064E07D
S113025085E290E00E946B002FEF80E792E021504E
S113026080409040E1F700C0000064E085E290E047
S11302700E946B0063E085E290E00E946B002FEF28
S113028080E792E0215080409040E1F700C00000F8
S113029063E085E290E00E946B0062E085E290E01A
S11302A00E946B002FEF80E792E021508040904045
S11302B0E1F700C0000062E085E290E00E946B007C
S11302C061E085E290E00E946B0052CFF894FFCF8A
S9030000FC
