S00D0000426C696E6B2E7372656327
S11300000C9434000C943E000C943E000C943E007E
S11300100C943E000C943E000C943E000C943E0064
S11300200C943E000C943E000C943E000C943E0054
S11300300C943E000C943E000C943E000C943E0044
S11300400C943E000C943E000C943E000C943E0034
S11300500C943E000C943E000C943E000C943E0024
S11300600C943E000C943E0011241FBECFEFD8E048
S1130070DEBFCDBF0E9440000C94D1000C94000060
S1130080259A90E22D9A2FEF33ED80E321503040F2
S11300908040E1F700C000002D982FEF33ED80E39E
S11300A0215030408040E1F700C000002D982FEF30
S11300B033ED80E3215030408040E1F700C0000080
S11300C02D9A2FEF33ED80E3215030408040E1F74B
S11300D000C000002D982FEF37EA81E62150304010
S11300E08040E1F700C000002D9A2FEF33ED80E34C
S11300F0215030408040E1F700C000002D982FEFE0
S113010033ED80E3215030408040E1F700C000002F
S11301102FEF37EA81E6215030408040E1F700C0FC
S113012000002D9A2FEF33ED80E3215030408040C2
S1130130E1F700C000002D9A2FEF33ED80E321504A
S113014030408040E1F700C000002D9A2FEF33EDDE
S113015080E3215030408040E1F700C000002D9A38
S11301602FEF33ED80E3215030408040E1F700C0B1
S113017000002D982FEF33ED80E321503040804074
S1130180E1F700C000002D982FEF33ED80E32150FC
S113019030408040E1F700C0000085B1892785B96F
S10901A071CFF894FFCFBB
S9030000FC
