S01900005061726B696E675F417373697374616E742E7372656326
S11300000C9434000C94D1010C9492030C94510080
S11300100C9451000C9451000C9451000C94510018
S11300200C9451000C94AE050C9451000C945100A6
S11300300C9451000C945A050C9451000C945100EA
S11300400C9451000C9451000C941E060C944C0614
S11300500C9451000C9451000C9451000C945100D8
S11300600C9451000C94510011241FBECFEFD8E022
S1130070DEBFCDBF11E0A0E0B1E0E6E3F0E102C0F5
S113008005900D92A637B107D9F721E0A6E7B1E0B4
S113009001C01D92AB3CB207E1F70E9437010C94FA
S11300A019080C940000FC01408121E030E002C0FA
S11300B0220F331F6A95E2F7242B20830895FC0155
S11300C0808121E030E002C0220F331F6A95E2F7FD
S11300D0922F90958923808380818181282B21838D
S11300E00895FC01908121E030E002C0220F331F0B
S11300F06A95E2F72095292320830895FC01408125
S113010021E030E002C0220F331F6A95E2F7242B6E
S113011020830895FC01808190E002C09595879525
S11301206A95E2F781700895299A85E08A95F1F736
S1130130000029980895CF93C82F662311F0289AB8
S113014001C02898549A559A569A579A5F985E987F
S11301505D985C98CC230CF45F9AC6FD5E9AC5FD4D
S11301605D9AC4FD5C9A0E9494005F985E985D98C5
S11301705C98C3FD5F9AC2FD5E9AC1FD5D9AC0FDA5
S11301805C9A0E9494005C9A5D9A5E9A5F9A87EBEF
S11301909BE00197F1F700C00000CF91089560E063
S11301A00E949B000895611104C080580E94CF00F2
S11301B0089580540E94CF00089581E00E94CF00EA
S11301C0089561E00E949B000895CF93DF93EC01B2
S11301D02196FC018081882329F00E94E100899105
S11301E08111FBCFDF91CF910895CF93C82F209A2F
S11301F0559A219A549A559A569A579A8FEF99EF8D
S11302000197F1F700C000005D9A5C9A0E94940087
S11302108FE19EE40197F1F700C000000E94940072
S11302208FEF90E00197F1F700C000000E94940066
S11302308FEF90E00197F1F700C000005C980E94F6
S113024094008FEF90E00197F1F700C0000088E27E
S11302500E94CF0088E00E94CF000E94DD0086E06B
S11302600E94CF008C2F0E94CF00CF9108958CE084
S11302700E94F50060E080E00E94D30080E091E0FD
S11302800E94E50061E080E00E94D30087E091E0F5
S11302900E94E50060E08DE00E94D3008BE291E0D3
S11302A00E94E50061E08DE00E94D3008BE291E0C2
S11302B00E94E5002FEF80E792E0215080409040BB
S11302C0E1F700C0000064E084E290E00E94530083
S11302D064E085E290E00E94710063E084E290E0D3
S11302E00E94530063E085E290E00E94710062E0A6
S11302F084E290E00E94530062E085E290E00E9474
S1130300710060E08AE290E00E94530060E08BE2BA
S113031090E00E94710061E08AE290E00E94530044
S113032061E08BE290E00E94710060E087E290E07F
S11303300E94530060E088E290E00E94710062E055
S11303408AE290E00E945F0063E08AE290E00E940B
S11303505F008DB383608DBBE9E6F0E080818F6040
S11303608083E1E8F0E080818B7F808380818360FB
S11303708083EFE6F0E0808181608083E1EBF0E050
S113038080818D7F8083808185608083E0E7F0E0D9
S113039080818160808387E690E00E94760678946D
S11303A0FFCF1F920F920FB60F9211242F933F93FA
S11303B04F935F936F937F938F939F93AF93BF9369
S11303C0EF93FF93CF93DF93CDB7DEB72A97DEBFCA
S11303D0CDBF09C0809178019091790101969093E5
S11303E079018093780162E089E290E00E948A00BA
S11303F08111F0CF6091780170917901072E000C82
S1130400880B990B0E94EB0626E933E44BE85CE386
S11304100E944F070E94B3066093BF017093C0010E
S11304208093C1019093C2012091760130917701AC
S11304302130310509F05DC16093C7017093C80193
S11304408093C9019093CA01613971408105910576
S11304501CF18DE091E00E94A40660E087E00E9418
S1130460D30085E191E00E94E50060E087E00E940E
S1130470D3008CE191E00E94E50064E085E290E025
S11304800E94710063E085E290E00E94710062E0E6
S113049085E290E00E9471008091BF019091C001BB
S11304A0A091C101B091C20185569109A109B10978
S11304B08C329140A105B105E8F564E085E290E055
S11304C00E947E0063E085E290E00E94710062E099
S11304D085E290E00E9471004AE0BE016F5F7F4FA9
S11304E08091BF019091C0010E94E40760E087E021
S11304F00E94D30085E191E00E94E50060E087E07E
S11305000E94D300CE0101960E94E50082E291E0B0
S11305100E94A406CE0101960E94A4068AE291E0FC
S11305200E94A4068EE291E00E94A40683E191E079
S11305300E94A4068091BF019091C001A091C101C5
S1130540B091C2014F97A109B10986349105A10563
S1130550B105E8F563E085E290E00E947E0064E086
S113056085E290E00E94710062E085E290E00E94E2
S113057071004AE0BE016F5F7F4F8091BF0190918F
S1130580C0010E94E40760E087E00E94D30085E197
S113059091E00E94E50060E087E00E94D300CE0174
S11305A001960E94E50082E291E00E94A406CE0139
S11305B001960E94A4068AE291E00E94A4068AE3BE
S11305C091E00E94A40683E191E00E94A406809138
S11305D0BF019091C001A091C101B091C2014F9798
S11305E0A105B105ECF562E085E290E00E947E0091
S11305F064E085E290E00E94710063E085E290E0AF
S11306000E9471004AE0BE016F5F7F4F8091BF017D
S11306109091C0010E94E40760E087E00E94D3004B
S113062085E191E00E94E50060E087E00E94D3004C
S1130630CE0101960E94E50082E291E00E94A406A8
S1130640CE0101960E94A4068AE291E00E94A406CB
S113065082E591E00E94A40683E191E00E94A40651
S11306608091BF019091C001A091C101B091C201DC
S11306700F97A105B105ECF562E085E290E00E94D8
S11306807E0064E085E290E00E94710063E085E210
S113069090E00E9471004AE0BE016F5F7F4F80913D
S11306A0BF019091C0010E94E40760E087E00E94CE
S11306B0D30085E191E00E94E50060E087E00E94BC
S11306C0D300CE0101960E94E50082E291E00E94EF
S11306D0A406CE0101960E94A4068AE291E00E943B
S11306E0A40689E591E00E94A40683E191E00E94BA
S11306F0A4062A960FB6F894DEBF0FBECDBFDF91D5
S1130700CF91FF91EF91BF91AF919F918F917F9185
S11307106F915F914F913F912F910F900FBE0F906A
S11307201F9018951F920F920FB60F9211240F93DA
S11307301F932F933F934F935F936F937F938F9365
S11307409F93AF93BF93EF93FF93CF93DF93CDB773
S1130750DEB72A97DEBFCDBF09C0809178019091A2
S113076079010196909379018093780163E089E29D
S113077090E00E948A008111F0CF6091780170911D
S11307807901072E000C880B990B0E94EB0626E9D1
S113079033E44BE85CE30E944F070E94B306609386
S11307A0BF017093C0018093C1019093C201209155
S11307B07601309177012230310509F060C16093F0
S11307C0C3017093C4018093C5019093C60161393C
S11307D021E07207810591054CF18DE091E00E94C2
S11307E0A40661E087E00E94D30085E191E00E94C5
S11307F0E50061E087E00E94D3008CE191E00E9473
S1130800E50064E085E290E00E94710063E085E227
S113081090E00E94710062E085E290E00E94710025
S113082060E088E290E00E94710029C18B019C0184
S113083005561109210931090C32114021053105F0
S113084008F043C064E085E290E00E947E0063E02B
S113085085E290E00E94710062E085E290E00E94EF
S1130860710060E088E290E00E9471004AE0BE01FD
S11308706F5F7F4F8091BF019091C0010E94E40798
S113088061E087E00E94D30085E191E00E94E500E9
S113089061E087E00E94D300CE0101960E94E5004A
S11308A082E291E00E94A406CE0101960E94A40671
S11308B08AE291E00E94A4068EE291E00E94A406DE
S11308C083E191E00E94A406DAC08B019C010F51E0
S11308D0110921093109063411052105310508F0F2
S11308E043C063E085E290E00E947E0064E085E21C
S11308F090E00E94710062E085E290E00E94710045
S113090060E088E290E00E9471004AE0BE016F5FFF
S11309107F4F8091BF019091C0010E94E40761E084
S113092087E00E94D30085E191E00E94E50061E048
S113093087E00E94D300CE0101960E94E50082E286
S113094091E00E94A406CE0101960E94A4068AE2C8
S113095091E00E94A4068AE391E00E94A40683E148
S113096091E00E94A4068BC06F3171058105910549
S11309700CF043C062E085E290E00E947E0064E0F7
S113098085E290E00E94710063E085E290E00E94BD
S1130990710060E088E290E00E9471004AE0BE01CC
S11309A06F5F7F4F8091BF019091C0010E94E40767
S11309B061E087E00E94D30085E191E00E94E500B8
S11309C061E087E00E94D300CE0101960E94E50019
S11309D082E291E00E94A406CE0101960E94A40640
S11309E08AE291E00E94A40682E591E00E94A406B6
S11309F083E191E00E94A40642C06F307105810535
S1130A009105ECF562E085E290E00E947E0064E0EE
S1130A1085E290E00E94710063E085E290E00E942C
S1130A2071004AE0BE016F5F7F4F8091BF019091DA
S1130A30C0010E94E40761E087E00E94D30085E1E1
S1130A4091E00E94E50061E087E00E94D300CE01BE
S1130A5001960E94E50082E291E00E94A406CE0184
S1130A6001960E94A4068AE291E00E94A40689E508
S1130A7091E00E94A40683E191E00E94A4062A96D4
S1130A800FB6F894DEBF0FBECDBFDF91CF91FF91BB
S1130A90EF91BF91AF919F918F917F916F915F91F2
S1130AA04F913F912F911F910F910F900FBE0F9077
S1130AB01F9018951F920F920FB60F9211242F9327
S1130AC03F934F935F936F937F938F939F93AF93D2
S1130AD0BF93EF93FF9380917601909177010196F4
S1130AE090937701809376018091760190917701BC
S1130AF0019779F460E08BE290E00E947E008AE640
S1130B008A95F1F700C060E08BE290E00E947100EA
S1130B1014C08091760190917701029771F461E09D
S1130B208BE290E00E947E008AE68A95F1F700C08D
S1130B3061E08BE290E00E947100FF91EF91BF9120
S1130B40AF919F918F917F916F915F914F913F9161
S1130B502F910F900FBE0F901F9018951F920F9218
S1130B600FB60F9211242F933F934F935F936F937C
S1130B707F938F939F93AF93BF93EF93FF93809152
S1130B80C7019091C801A091C901B091CA014091D7
S1130B90C3015091C4016091C5017091C60121E067
S1130BA080319105A105B1050CF020E0211109C0A7
S1130BB021E040315105610571050CF020E022234C
S1130BC071F0E1EBF0E080818B7F80838081836032
S1130BD0808360E088E290E00E947E001EC021E0F5
S1130BE00F97A105B1050CF420E0211109C081E0A3
S1130BF04F305105610571050CF480E0882369F0DC
S1130C00E1EBF0E080818D7F80838081856080834B
S1130C1060E088E290E00E947E00FF91EF91BF9136
S1130C20AF919F918F917F916F915F914F913F9180
S1130C302F910F900FBE0F901F9018951F920F9237
S1130C400FB60F9211242F938F939F93EF93FF93DB
S1130C508091C0002091C6008C71E0917C01EF5F0F
S1130C60EF7190917B01E91739F0E0937C01F0E09A
S1130C70E158FE4F208301C082E090917A01892BD4
S1130C8080937A01FF91EF919F918F912F910F9013
S1130C900FBE0F901F9018951F920F920FB60F92D0
S1130CA011248F939F93EF93FF9390917E018091F2
S1130CB07D01981769F0E0917D01EF5FEF71E0939A
S1130CC07D01F0E0E156FE4F80818093C60005C0AF
S1130CD0E1ECF0E080818F7D8083FF91EF919F9123
S1130CE08F910F900FBE0F901F90189510927E0158
S1130CF010927D0110927C0110927B0199231CF4C7
S1130D0022E02093C00090789093C5008093C400A3
S1130D1088E98093C10086E08093C2000895209101
S1130D207E012F5F2F7190917D012917E1F3E22F4E
S1130D30F0E0E156FE4F808320937E01E1ECF0E089
S1130D408081806280830895CF93DF93EC01888152
S1130D50882331F021960E948F0689918111FBCF5F
S1130D60DF91CF9108950E94BA066894B1110C9452
S1130D70490708950E942E0788F09F5798F0B92FCD
S1130D809927B751B0F0E1F0660F771F881F991FBC
S1130D901AF0BA95C9F714C0B13091F00E9448070F
S1130DA0B1E008950C944807672F782F8827B85F1F
S1130DB039F0B93FCCF3869577956795B395D9F714
S1130DC03EF490958095709561957F4F8F4F9F4F1E
S1130DD00895E89409C097FB3EF49095809570952A
S1130DE061957F4F8F4F9F4F9923A9F0F92F96E973
S1130DF0BB279395F695879577956795B795F111E8
S1130E00F8CFFAF4BB0F11F460FF1BC06F5F7F4F84
S1130E108F4F9F4F16C0882311F096E911C0772396
S1130E2021F09EE8872F762F05C0662371F096E89F
S1130E30862F70E060E02AF09A95660F771F881F6E
S1130E40DAF7880F9695879597F9089557FD905886
S1130E50440F551F59F05F3F71F04795880F97FB7A
S1130E60991F61F09F3F79F0879508951216130634
S1130E701406551FF2CF4695F1DF08C01616170663
S1130E801806991FF1CF8695710561050894089598
S1130E90E894BB2766277727CB0197F908950E942A
S1130EA062070C94D3070E94C50738F00E94CC0750
S1130EB020F0952311F00C94BC070C94C207112464
S1130EC00C9449070E94260770F3959FC1F3950F70
S1130ED050E0551F629FF001729FBB27F00DB11DBA
S1130EE0639FAA27F00DB11DAA1F649F6627B00D4A
S1130EF0A11D661F829F2227B00DA11D621F739F33
S1130F00B00DA11D621F839FA00D611D221F749F40
S1130F103327A00D611D231F849F600D211D822F87
S1130F20762F6A2F11249F5750409AF0F1F08823AE
S1130F304AF0EE0FFF1FBB1F661F771F881F9150DB
S1130F405040A9F79E3F510580F00C94BC070C94C7
S1130F5049075F3FE4F3983ED4F386957795679508
S1130F60B795F795E7959F5FC1F7FE2B880F911D05
S1130F709695879597F9089597F99F6780E870E0AB
S1130F8060E008959FEF80EC089500240A941616FB
S1130F90170618060906089500240A941216130663
S1130FA0140605060895092E0394000C11F48823F1
S1130FB052F0BB0F40F4BF2B11F460FF04C06F5F0D
S1130FC07F4F8F4F9F4F0895BB274A3031F49923A9
S1130FD022F4BDE2909581959F4F0C94F007BB27B6
S1130FE0FB015527AA27880F991FAA1FA41710F0E1
S1130FF0A41B83955051B9F7A05DAA3308F0A95DED
S1131000A193009779F7B111B1931192CB010C948C
S11310100908DC01FC01672F71917723E1F732970E
S113102004C07C916D9370836291AE17BF07C8F3BF
S10910300895F894FFCFBF
S113103646726F6E743A004261636B3A00436C65A4
S11310466172200A0020202020202000436C656164
S1131056720046726F6E743A200020636D0020534E
S113106661666520746F20676F00205761726E6930
S11310766E672C2067657474696E6720636C6F7382
S113108665002053544F5021002053544F502120C3
S11310967061726B696E672072756C65732062721B
S10910A66F6B656E000093
S9030000FC
